:060000000A128A150A2A0B
:100008000C280130F0020030031CF103F1020C2827
:1000180071087004031D11281228052813280800E8
:100028002A342A342A34203420342A342A342A34EC
:10003800203420342A342A342A34203444345634A0
:100048000034203441344134503420347734693416
:100058006E347334213421340034003400340034D5
:100068000034203442344A345034203477346934EC
:100078006E347334213421340034003400340034B5
:100088000034203453346F346D3465347434683438
:1000980069346E3467342034773465346E3474349C
:1000A80000344134413450342034203442344A340A
:1000B80050342034203449344E344334003420340E
:1000C800773472346F346E346734203421342134F9
:1000D800003483120313A101FC1F732874287D28A0
:1000E800FB09FC09FB0A0319FC0AA1010314A10D71
:1000F8007D28FA1F802881288728F909FA09F90A32
:100108000319FA0A87287A08790403198C288D2894
:10011800C328A0010314A00D9D2801300310F90D78
:10012800FA0DFF3E031D92280130FD007D08A0074F
:100138009D28FA1FA028A1289128A328A3287A0877
:100148007C02031DA92879087B02031CAC28AD2872
:10015800B4287908FB027A08031CFC03FC02B428C3
:1001680001300310FA0CF90CFF3E031DB5280130CD
:10017800A002031DC028C128A328C328C32821081A
:10018800031DC728CD28FB09FC09FB0A0319FC0A33
:10019800CD287C08FA01FA077B08F901F907D42869
:1001A8000800F601F11FD928DA28E328F009F10937
:1001B800F00A0319F10AF6010314F60DE328F31FF8
:1001C800E628E728F128F209F309F20A0319F30AE5
:1001D8000130F4007408F606F128F701F8017108F7
:1001E80070040319F828F9283729F5010314F50DC7
:1001F800092901300310F00DF10DFF3E031DFE2803
:100208000130F4007408F5070929F11F0C290D299C
:10021800FD280F290F2901300310F70DF80DFF3EB7
:10022800031D102971087302031D1C29700872022E
:10023800031C1F29202928297008F2027108031CB1
:10024800F303F3027714282901300310F10CF00CA2
:10025800FF3E031D29290130F502031D34293529E4
:100268000F29372937297608031D3B294129F70922
:10027800F809F70A0319F80A41297808F101F10782
:100288007708F001F0074829080083120313CA0011
:10029800013086000A128A15BB210A128A118030A1
:1002A8008312031386000A128A15BB210A128A11C7
:1002B80028308400383083120313A4000408A500F2
:1002C8001030A6002408840083170008A700A40A99
:1002D80025088400831327088000A50AA60B662931
:1002E800CB01CC014C08803AFF0080307F02031D0F
:1002F8007F2910304B02031C822983298529A829CC
:10030800A829831203134B08283E8400831300088E
:1003180086000A128A15D5210A128A110130831221
:100328000313CB070318CC0A0030CC074C08803ADB
:10033800FF0080307F02031DA32910304B02031CED
:10034800A629A7298529A82983120313C401C50151
:100358004508803AFF0080307F02031DB5293C30F4
:100368004402031CB829B929BB29DA29DA296030E3
:10037800F000EA30F1000A128A1104200A128A11E8
:10038800013083120313C4070318C50A0030C507D8
:100398004508803AFF0080307F02031DD5293C3094
:1003A8004402031CD829D929BB29DA290130831230
:1003B800031386000A128A15BB210A128A1180309B
:1003C8008312031386000A128A15BB210A128A11A6
:1003D8000A30F9000030FA000A30F0000030F1006D
:1003E800831203134A08A400A5012408F200250873
:1003F800F3000A128A11D5200A128A117108FC0129
:10040800FC077008FB01FB070A128A116D200A120B
:100418008A117A0883120313B901B9077908B80158
:10042800B8070A30F9000030FA004A08A400A5010C
:100438002408FB002508FC000A128A116D200A1204
:100448008A117A0883120313BB01BB077908BA0122
:10045800BA073808303EA400240883160313D300D3
:10046800831203133A08303EA400240883160313AA
:10047800D4000A30F9000030FA000A30F0000030E9
:10048800F100831203132208A400A5012408F20036
:100498002508F3000A128A11D5200A128A11710858
:1004A800FC01FC077008FB01FB070A128A116D208A
:1004B8000A128A117A0883120313BD01BD0779084D
:1004C800BC01BC070A30F9000030FA002208A40079
:1004D800A5012408FB002508FC000A128A116D20DA
:1004E8000A128A117A0883120313BF01BF07790819
:1004F800BE01BE073C08303EA4002408831603133F
:10050800DB00831203133E08303EA4002408831640
:100518000313DC000A30F9000030FA000A30F0005A
:100528000030F100831203132308A400A501240856
:10053800F2002508F3000A128A11D5200A128A113E
:100548007108FC01FC077008FB01FB070A128A11FD
:100558006D200A128A117A0883120313C101C10798
:100568007908C001C0070A30F9000030FA002308F2
:10057800A400A5012408FB002508FC000A128A1122
:100588006D200A128A117A0883120313C301C30764
:100598007908C201C2074008303EA4002408831627
:1005A8000313E300831203134208303EA400240817
:1005B80083160313E40083120313CD01CE014E0802
:1005C800803AFF0080307F02031DEC2A17304D026D
:1005D800031CEF2AF02AF22A152B152B831203137A
:1005E8004D08CF3E84008313000886000A128A153E
:1005F800D5210A128A11013083120313CD0703187B
:10060800CE0A0030CE074E08803AFF0080307F02C5
:10061800031D102B17304D02031C132B142BF22A29
:10062800152B83120313C601C7014708803AFF0040
:1006380080307F02031D222B3E304602031C252BEF
:10064800262B282B592B592B18308312031386007D
:100658000A128A15BB210A128A116030F000EA30AA
:10066800F1000A128A1104200A128A114030F0009F
:100678009C30F1000A128A1104200A128A110130F2
:1006880083120313C6070318C70A0030C7074708B1
:10069800803AFF0080307F02031D542B3E30460213
:1006A800031C572B582B282B592B83120313C801D3
:1006B800C9014908803AFF0080307F02031D662B7C
:1006C80014304802031C692B6A2B6C2B8B2B8B2B49
:1006D8005030F000C330F1000A128A1104200A12C7
:1006E8008A11013083120313C8070318C90A00309E
:1006F800C9074908803AFF0080307F02031D862B16
:1007080014304802031C892B8A2B6C2B8B2BF0018D
:1007180001300A128A15A1210A128A11F001083043
:100728000A128A15A1210A128A11F00115300A123B
:100738008A15A1210A128A1101300A128A15EF219D
:100748000A128A1183120313A4002408CA0008306D
:100758000A128A15EF210A128A1183120313A400C0
:100768002408A20015300A128A15EF210A128A11EC
:1007780083120313A4002408A3000A128A15B822BE
:100788000A128A110A128A11CC230A128A11080045
:1007980083160313BA01BB01860183120313860172
:1007A8000F30831603138800831203138801333034
:1007B80083160313870083120313870138308600DA
:1007C8000A128A15BB210A128A110C3083120313EC
:1007D80086000A128A15BB210A128A110130831277
:1007E800031386000A128A15BB210A128A11803067
:1007F8008312031386000A128A15BB210A128A1172
:10080800052C83160313C001C1014108803AFF007B
:1008180080307F02031D122C27304002031C152C48
:10082800162C182C3D2C3D2C831603134008103E23
:100838008400831700088312031386000A128A159E
:10084800D5210A128A11013083160313C007031831
:10085800C10A0030C1074108803AFF0080307F029A
:10086800031D382C27304002031C3B2C3C2C182C31
:100878003D2C83160313BC01BD013D08803AFF00DF
:1008880080307F02031D4A2C27303C02031C4D2C6C
:100898004E2C502C812C812C183083120313860087
:1008A8000A128A15BB210A128A116030F000EA3058
:1008B800F1000A128A1104200A128A114030F0004D
:1008C8009C30F1000A128A1104200A128A110130A0
:1008D80083160313BC070318BD0A0030BD073D0883
:1008E800803AFF0080307F02031D7C2C27303C02B9
:1008F800031C7F2C802C502C812C01308312031375
:1009080086000A128A15BB210A128A116030F0008B
:10091800EA30F1000A128A1104200A128A116030A2
:10092800F000EA30F1000A128A1104200A128A1132
:1009380080308312031386000A128A15BB210A121B
:100948008A1183160313C201C3014308803AFF00CA
:1009580080307F02031DB22C0D304202031CB52CDF
:10096800B62CB82CDD2CDD2C831603134208D13E9F
:100978008400831700088312031386000A128A155D
:10098800D5210A128A11013083160313C2070318EE
:10099800C30A0030C3074308803AFF0080307F0253
:1009A800031DD82C0D304202031CDB2CDC2CB82C88
:1009B800DD2CC0308312031386000A128A15BB216E
:1009C8000A128A1183160313C401C5014508803A27
:1009D800FF0080307F02031DF32C16304402031CF5
:1009E800F62CF72CF92C1D2D1D2D83160313440806
:1009F800903E8400831700088312031386000A12AE
:100A08008A15D5210A128A11013083160313C407E7
:100A18000318C50A0030C5074508803AFF00803032
:100A28007F02031D192D16304402031C1C2D1D2D99
:100A3800F92C831203130715212D071C242D252DAE
:100A4800212D272D272D83120313071C2C2D2D2D27
:100A5800272D071187154530CF004F088316031738
:100A68009E00C0308312031386000A128A15BB2128
:100A78000A128A1183160313C601C7014708803A70
:100A8800FF0080307F02031D4B2D16304602031CE9
:100A98004E2D4F2D512DE52FE52F831603134608B4
:100AA800903E8400831700088312031386000A12FD
:100AB8008A15D5210A128A11013083160313C60735
:100AC8000318C70A0030C7074708803AFF0080307C
:100AD8007F02031D712D16304602031C742D752DDF
:100AE800512DE52FE52F081D7A2D7B2DA02D7D2D6D
:100AF8007D2D0819802D812D7D2D822D0130CF006F
:100B08004F0883160313CC070A128A15B8220A1253
:100B18008A11831603134C0883120313CF004F085E
:100B2800F00001300A128A15A1210A128A118312D3
:100B3800031387110715272D881DA32DA42DC92D53
:100B4800A62DA62D8819A92DAA2DA62DAB2D0130CD
:100B5800CF004F0883160313CE070A128A15B8224E
:100B68000A128A11831603134E0883120313CF0047
:100B78004F08F00008300A128A15A1210A128A11BA
:100B88008312031387110715272D071ECC2DCD2D92
:100B9800F22DCF2DCF2D071AD22DD32DCF2DD42D19
:100BA8000130CF004F0883160313CD070A128A15A8
:100BB800B8220A128A11831603134D0883120313ED
:100BC800CF004F08F00015300A128A15A1210A1229
:100BD8008A118312031387110715272D871EF52DF8
:100BE800F62D492EF82DF82D871AFB2DFC2DF82D02
:100BF800871107150A128A15B8220A128A11F001FC
:100C080001300A128A15A1210A128A11F00108304E
:100C18000A128A15A1210A128A11F00115300A1246
:100C28008A15A1210A128A1101300A128A15EF21A8
:100C38000A128A1183120313CF004F088316031375
:100C4800CC0008300A128A15EF210A128A11831281
:100C58000313CF004F0883160313CE0015300A1272
:100C68008A15EF210A128A1183120313CF004F0845
:100C780083160313CD006030F000EA30F1000A1249
:100C88008A1104200A128A11272D871C4C2E4D2EFA
:100C9800E52F01300A128A15EF210A128A118312F0
:100CA8000313CF004F0883160313CC0008300A1231
:100CB8008A15EF210A128A1183120313CF004F08F5
:100CC80083160313CE0015300A128A15EF210A1273
:100CD8008A1183120313CF004F0883160313CD0024
:100CE8004C084E020318792E7A2E972E4C084D0286
:100CF80003187F2E802E972E4E0883120313CF00E1
:100D08004F08A200831603134D0883120313D00063
:100D18005008A300831603134C080A128A15FA22F6
:100D28000A128A11972E831603134E084C020318D1
:100D38009E2E9F2EBC2E4E084D020318A42EA52EC3
:100D4800BC2E4E0883120313CF004F08A20083164F
:100D580003134D0883120313D0005008A300831611
:100D680003134C080A128A157D250A128A11BC2E13
:100D7800831603134D084E020318C32EC42EE12E0A
:100D88004D084C020318C92ECA2EE12E4E088312B4
:100D98000313CF004F08A200831603134D088312D4
:100DA8000313D0005008A300831603134C080A123B
:100DB8008A1149210A128A11E12E831603134C085D
:100DC8004E06031DE82EE92EE52F4E084D06031D9D
:100DD800EE2EEF2EE52FA0308400C13083120313CE
:100DE800CF000408D0001030D1004F0884008317CA
:100DF8000008D200CF0A50088400831352088000EC
:100E0800D00AD10BF92EB0308400DF30CF000408AF
:100E1800D0000A30D1004F08840083170008D200A0
:100E2800CF0A50088400831352088000D00AD10BDF
:100E38000F2F013086000A128A15BB210A128A1167
:100E480080308312031386000A128A15BB210A1206
:100E58008A1183160313C801C9014908803AFF00A3
:100E680080307F02031D3A2F0F304802031C3D2FAC
:100E78003E2F402F652F652F831603134808A03E89
:100E88008400831300088312031386000A128A154C
:100E9800D5210A128A11013083160313C8070318D3
:100EA800C90A0030C9074908803AFF0080307F022C
:100EB800031D602F0F304802031C632F642F402F3F
:100EC800652FC0308312031386000A128A15BB21CE
:100ED8000A128A1183160313CA01CB014B08803A00
:100EE800FF0080307F02031D7B2F09304A02031C5C
:100EF8007E2F7F2F812FA62FA62F831603134A0834
:100F0800B03E8400831300088312031386000A127C
:100F18008A15D5210A128A11013083160313CA07CC
:100F28000318CB0A0030CB074B08803AFF0080300B
:100F38007F02031DA12F09304A02031CA42FA52FED
:100F4800812FA62F83160313BE01BF013F08803AE5
:100F5800FF0080307F02031DB32F14303E02031CB4
:100F6800B62FB72FB92FD82FD82F6030F000EA301E
:100F7800F1000A128A1104200A128A11013083161C
:100F88000313BE070318BF0A0030BF073F08803AA3
:100F9800FF0080307F02031DD32F14303E02031C54
:100FA800D62FD72FB92FD82F0A128A1578220A12CE
:100FB8008A110A128A11CC230A128A11E52FE52F09
:100FC800E52F83120313081DEA2FEB2F772D881DB9
:100FD800EE2FEF2F772D071EF22FF32F772D871E79
:100FE800F62FF72F772D272D272D272D272D052C89
:080FF800052C0A128A110028E1
:1012DA0064008001840A04060319003404066E2996
:1012EA007E088A007F0882000A128A1575210A126E
:1012FA008A158000840A04087D0603190034FF0A4F
:10130A000319FE0A79294134413450343D342034DA
:10131A0020342034203442344A3450343D3420348A
:10132A0020342034203449344E3443343D3420347C
:10133A002034203420340034F100831603178C1330
:10134A007108831203178D0070088C008316031727
:10135A008C110C1555308D00AA308D008C14B529CE
:10136A008C18B829B929B5290C110800831203135E
:10137A0008138817FA30F0000030F1000A128A11B7
:10138A0004200A128A15831203138813F430F0001A
:10139A000130F1000A128A1104200A128A15080083
:1013AA008312031308178817FA30F0000030F1008F
:1013BA000A128A1104200A128A1583120313881347
:1013CA00F430F0000130F1000A128A1104200A12E6
:1013DA008A150800F100831603178C13710883120B
:1013EA0003178D00831603170C110C14FC290C1813
:1013FA00FF29002AFC29012A831203170C08F0008E
:10140A007008F2007208092A080083135330840016
:10141A0069300A128A156D210A128A158317E93072
:10142A00FD000030FE001430FF00903084000A12E4
:10143A008A1579210A128A154830FD000A30FE0001
:10144A004030FF00103084000A128A1579210A12EE
:10145A008A158313E830FD000930FE008830FF004A
:10146A00CF3084000A128A1579210A128A1583015B
:10147A000A128A11CC2B2034203420342034203410
:10148A0020342034203420342034203420342034B2
:10149A0020342034203420344434693467346934A5
:1014AA00743461346C34203456346F34743469348F
:1014BA006E34673420344D346134633468346934AB
:1014CA006E3465340034203443346F346E346734F8
:1014DA0072346534733473342034773469346E3437
:1014EA00733421342134F00101300A128A15A12102
:1014FA000A128A15F00108300A128A15A1210A1265
:10150A008A15F00115300A128A15A1210A128A15C4
:10151A0001300A128A15EF210A128A15F300F40122
:10152A00730883120313DB007408DC0001300A120B
:10153A008A15EF210A128A15F300F401730883123F
:10154A000313E7007408E80001300A128A15EF2134
:10155A000A128A15F300F401730883120313E500D3
:10156A007408E60008004430F20072088316031774
:10157A009E00C0308312031386000A128A15BB210B
:10158A000A128A15F301F4017408803AFF008030C8
:10159A007F02031DD22A16307302031CD52AD62ACB
:1015AA00D82AF92AF92A7308903E8400831700087A
:1015BA008312031386000A128A15D5210A128A1584
:1015CA000130F3070318F40A0030F4077408803A6C
:1015DA00FF0080307F02031DF42A16307302031CB9
:1015EA00F72AF82AD82AF92A080083120313CA000C
:1015FA00013086000A128A15BB210A128A15803028
:10160A008312031386000A128A15BB210A128A154D
:10161A0028308400A13083120313A4000408A50013
:10162A001030A6002408840083170008A700A40A23
:10163A0025088400831327088000A50AA60B172B08
:10164A00CB01CC014C08803AFF0080307F02031D99
:10165A00302B0B304B02031C332B342B362B592BDC
:10166A00592B831203134B08283E84008313000866
:10167A0086000A128A15D5210A128A1501308312A8
:10168A000313CB070318CC0A0030CC074C08803A66
:10169A00FF0080307F02031D542B0B304B02031CCA
:1016AA00572B582B362B592B83120313C401C50110
:1016BA004508803AFF0080307F02031D662B3C30CC
:1016CA004402031C692B6A2B6C2B8B2B8B2B6030EF
:1016DA00F000EA30F1000A128A1104200A128A156F
:1016EA00013083120313C4070318C50A0030C50763
:1016FA004508803AFF0080307F02031D862B3C306C
:10170A004402031C892B8A2B6C2B8B2B01308312EE
:10171A00031386000A128A15BB210A128A15803021
:10172A008312031386000A128A15BB210A128A152C
:10173A000A30F9000030FA000A30F0000030F100F7
:10174A00831203134A08A400A5012408F2002508FD
:10175A00F3000A128A11D5200A128A157108FC01AF
:10176A00FC077008FB01FB070A128A116D200A1296
:10177A008A157A0883120313B901B9077908B801DF
:10178A00B8070A30F9000030FA004A08A400A50197
:10179A002408FB002508FC000A128A116D200A128F
:1017AA008A157A0883120313BB01BB077908BA01A9
:1017BA00BA073808303EA400240883160313D3005E
:1017CA00831203133A08303EA40024088316031335
:1017DA00D4000A30F9000030FA000A30F000003074
:1017EA00F100831203132208A400A5012408F200C1
:1017FA002508F3000A128A11D5200A128A157108DF
:10180A00FC01FC077008FB01FB070A128A116D2014
:10181A000A128A157A0883120313BD01BD077908D3
:10182A00BC01BC070A30F9000030FA002208A40003
:10183A00A5012408FB002508FC000A128A116D2064
:10184A000A128A157A0883120313BF01BF0779089F
:10185A00BE01BE073C08303EA400240883160313C9
:10186A00DB00831203133E08303EA40024088316CB
:10187A000313DC000A30F9000030FA000A30F000E5
:10188A000030F100831203132308A400A5012408E1
:10189A00F2002508F3000A128A11D5200A128A15C5
:1018AA007108FC01FC077008FB01FB070A128A1188
:1018BA006D200A128A157A0883120313C101C1071F
:1018CA007908C001C0070A30F9000030FA0023087D
:1018DA00A400A5012408FB002508FC000A128A11AD
:1018EA006D200A128A157A0883120313C301C307EB
:1018FA007908C201C2074008303EA40024088316B2
:10190A000313E300831203134208303EA4002408A1
:10191A0083160313E40083120313CD01CE014E088C
:10192A00803AFF0080307F02031D9D2C17304D0244
:10193A00031CA02CA12CA32CC62CC62C8312031387
:10194A004D08CF3E84008313000886000A128A15C8
:10195A00D5210A128A15013083120313CD07031801
:10196A00CE0A0030CE074E08803AFF0080307F0250
:10197A00031DC12C17304D02031CC42CC52CA32CEB
:10198A00C62C83120313C601C7014708803AFF0019
:10199A0080307F02031DD32C3E304602031CD62C16
:1019AA00D72CD92C0A2D0A2D18308312031386003E
:1019BA000A128A15BB210A128A156030F000EA3031
:1019CA00F1000A128A1104200A128A154030F00026
:1019DA009C30F1000A128A1104200A128A15013079
:1019EA0083120313C6070318C70A0030C70747083C
:1019FA00803AFF0080307F02031D052D3E304602EB
:101A0A00031C082D092DD92C0A2D83120313C80192
:101A1A00C9014908803AFF0080307F02031D172D53
:101A2A0014304802031C1A2D1B2D1D2D3C2D3C2D54
:101A3A005030F000C330F1000A128A1104200A1251
:101A4A008A15013083120313C8070318C90A003024
:101A5A00C9074908803AFF0080307F02031D372DED
:101A6A0014304802031C3A2D3B2D1D2D3C2DF0014C
:101A7A0001300A128A15A1210A128A15F0010830CA
:101A8A000A128A15A1210A128A15F00115300A12C2
:101A9A008A15A1210A128A1501300A128A15EF2124
:101AAA000A128A1583120313A4002408CA000830F4
:101ABA000A128A15EF210A128A1583120313A40047
:101ACA002408A20015300A128A15EF210A128A1573
:101ADA0083120313A4002408A3000A128A15B82249
:101AEA000A128A150A128A11CC230A128A150800C8
:101AFA0083120313CA00013086000A128A15BB2119
:101B0A000A128A1580308312031386000A128A1574
:101B1A00BB210A128A1528308400B13083120313BC
:101B2A00A4000408A5001030A60024088400831726
:101B3A000008A700A40A2508840083132708800048
:101B4A00A50AA60B9A2DCB01CC014C08803AFF00BE
:101B5A0080307F02031DB32D0B304B02031CB62DC0
:101B6A00B72DB92DDC2DDC2D831203134B08283E2B
:101B7A0084008313000886000A128A15D5210A12E6
:101B8A008A15013083120313CB070318CC0A0030DD
:101B9A00CC074C08803AFF0080307F02031DD72D06
:101BAA000B304B02031CDA2DDB2DB92DDC2D8312F1
:101BBA000313C401C5014508803AFF0080307F0243
:101BCA00031DE92D3C304402031CEC2DED2DEF2DB5
:101BDA000E2E0E2E6030F000EA30F1000A128A1141
:101BEA0004200A128A15013083120313C40703184A
:101BFA00C50A0030C5074508803AFF0080307F02D9
:101C0A00031D092E3C304402031C0C2E0D2EEF2D11
:101C1A000E2E01308312031386000A128A15BB2185
:101C2A000A128A1580308312031386000A128A1553
:101C3A00BB210A128A150A30F9000030FA000A306C
:101C4A00F0000030F100831203134A08A400A50132
:101C5A002408F2002508F3000A128A11D5200A1274
:101C6A008A157108FC01FC077008FB01FB070A12C0
:101C7A008A116D200A128A157A0883120313B90190
:101C8A00B9077908B801B8070A30F9000030FA0034
:101C9A004A08A400A5012408FB002508FC000A1232
:101CAA008A116D200A128A157A0883120313BB015E
:101CBA00BB077908BA01BA073808303EA4002408DD
:101CCA0083160313D300831203133A08303EA40089
:101CDA00240883160313D4000A30F9000030FA00EE
:101CEA000A30F0000030F100831203132208A40026
:101CFA00A5012408F2002508F3000A128A11D5204A
:101D0A000A128A157108FC01FC077008FB01FB071F
:101D1A000A128A116D200A128A157A08831203138D
:101D2A00BD01BD077908BC01BC070A30F9000030C3
:101D3A00FA002208A400A5012408FB002508FC00DB
:101D4A000A128A116D200A128A157A08831203135D
:101D5A00BF01BF077908BE01BE073C08303EA40098
:101D6A00240883160313DB00831203133E08303E54
:101D7A00A400240883160313DC000A30F90000309B
:101D8A00FA000A30F0000030F1008312031323082E
:101D9A00A400A5012408F2002508F3000A128A11FA
:101DAA00D5200A128A157108FC01FC077008FB018C
:101DBA00FB070A128A116D200A128A157A08831201
:101DCA000313C101C1077908C001C0070A30F9002D
:101DDA000030FA002308A400A5012408FB00250806
:101DEA00FC000A128A116D200A128A157A088312D7
:101DFA000313C301C3077908C201C2074008303E72
:101E0A00A400240883160313E30083120313420871
:101E1A00303EA400240883160313E400831203133C
:101E2A00CD01CE014E08803AFF0080307F02031DAB
:101E3A00202F17304D02031C232F242F262F492F22
:101E4A00492F831203134D08CF3E840083130008E1
:101E5A0086000A128A15D5210A128A1501308312C0
:101E6A000313CD070318CE0A0030CE074E08803A76
:101E7A00FF0080307F02031D442F17304D02031CE0
:101E8A00472F482F262F492F83120313C601C70154
:101E9A004708803AFF0080307F02031D562F3E30EC
:101EAA004602031C592F5A2F5C2F8D2F8D2F183065
:101EBA008312031386000A128A15BB210A128A1595
:101ECA006030F000EA30F1000A128A1104200A1286
:101EDA008A154030F0009C30F1000A128A11042061
:101EEA000A128A15013083120313C6070318C70A98
:101EFA000030C7074708803AFF0080307F02031D81
:101F0A00882F3E304602031C8B2F8C2F5C2F8D2F7F
:101F1A0083120313C801C9014908803AFF008030BF
:101F2A007F02031D9A2F14304802031C9D2F9E2FF7
:101F3A00A02FBF2FBF2F5030F000C330F1000A127C
:101F4A008A1104200A128A15013083120313C80762
:101F5A000318C90A0030C9074908803AFF008030CF
:101F6A007F02031DBA2F14304802031CBD2FBE2F57
:101F7A00A02FBF2FF00101300A128A15A1210A12DF
:101F8A008A15F00108300A128A15A1210A128A1547
:101F9A00F00115300A128A15A1210A128A15013098
:101FAA000A128A15EF210A128A1583120313A40052
:101FBA002408CA0008300A128A15EF210A128A1563
:101FCA0083120313A4002408A20015300A128A15EA
:101FDA00EF210A128A1583120313A4002408A3000E
:101FEA000A128A15B8220A128A150A128A11CC23F1
:061FFA000A128A1508001E
:00000001FF
