:100000000A128A11F32F00308A000408840A82073A
:100010000034013400340A34003464340034E834E9
:10002000033410342734533465346E3473346F34EE
:1000300072342034563461346C3475346534203471
:0A0040003D342034253464340034CC
:1009FE0064008001840A0406031900340406002DE5
:100A0E00F000831203130C1E0D2D0E2D082D7008F1
:100A1E009900080083160313181398161812181548
:100A2E008312031398171813181608003F308312F9
:100A3E0003139F05C7309F051F10831603139F17BF
:100A4E001F13F0309F050800F2007208F300332DDB
:100A5E000130FF007F08F30773088400831300083A
:100A6E00031D3A2D3B2D2F2D72087302F000F1015C
:100A7E00F01BF1030800831203135808F000590805
:100A8E00F1000030F11BFF30F200F3000030F700F0
:100A9E000F30F6004230F5004030F4000A128A1191
:100AAE007C260A128A117008FF3E831603139900E2
:100ABE000800831203131F147008F200F20DF20DDA
:100ACE00F20D1F087206C73972069F003430F3000C
:100ADE00F130F200F20B712DF30B712D762D831286
:100AEE0003131F151F197C2D7D2D792D1E08F50062
:100AFE00831603131E08F4007508F1007408F00045
:100B0E000800F700F501F6019E2D75087707F40031
:100B1E0074088400831300080A128A1107250A122A
:100B2E008A110130F5070318F60A0030F607770828
:100B3E000A128A112B250A128A1171087602031DD8
:100B4E00AA2D70087502031CAD2DAE2D8C2D0D3007
:100B5E000A128A1107250A128A11080077087804EA
:100B6E000319BA2DBB2DEA2DFB01FB0AC92D01304D
:100B7E000310F70DF80DFF3E031DBF2D0130FF00D2
:100B8E007F08FB07F81FCC2DCD2DBE2D78087A02DD
:100B9E00031DD32D77087902031CD62DD72DDD2DFD
:100BAE007708F9027808031CFA03FA0201300310E1
:100BBE00F80CF70CFF3E031DDE2D0130FB02031D6A
:100BCE00E92DEA2DCD2D7A08F8007908F7000800F6
:100BDE00F401F501700871040319F62DF72D2E2E70
:100BEE00F601F60A052E01300310F00DF10DFF3E51
:100BFE00031DFB2D0130FF007F08F607F11F082EA5
:100C0E00092EFA2D01300310F40DF50DFF3E031DD4
:100C1E000A2E71087302031D162E70087202031C31
:100C2E00192E1A2E212E7008F2027108031CF303DE
:100C3E00F302741401300310F10CF00CFF3E031D8F
:100C4E00222E0130F602031D2D2E2E2E092E750892
:100C5E00F1007408F00008000A128A111D250A120C
:100C6E008A110A128A1111250A128A1180308312F2
:100C7E000313D8002530D9000A128A1142250A1210
:100C8E008A110130F0000030F1000A128A1160253D
:100C9E000A128A117108FD007008FC000B308312D5
:100CAE000313D2007D08D4007C08D30020300A1232
:100CBE008A1119270A128A1120300A128A118825E0
:100CCE000A128A11153083120313E1004B30E00033
:100CDE00BD30DF00DF0B712EE00B712EE10B712E9C
:100CEE00782E482E0A128A11002883120313D3017C
:100CFE00F31F822E832E902EF009F109F209F309CB
:100D0E00F00A0319F10A0319F20A0319F30AD301BF
:100D1E00D30AF71F932E942EA32EF409F509F60984
:100D2E00F709F40A0319F50A0319F60A0319F70A63
:100D3E000130FF007F08D3060030D7000030D60008
:100D4E000030D5000030D4007308720471047004B2
:100D5E000319B22EB32E002FD201D20AC32E0130A8
:100D6E00F8000310F00DF10DF20DF30DF80BB82E87
:100D7E000130FF007F08D207F31FC62EC72EB62EF6
:100D8E000130F8000310D40DD50DD60DD70DF80B8C
:100D9E00C92E73087702031DDE2E72087602031D1C
:100DAE00DE2E71087502031DDE2E70087402031C00
:100DBE00E12EE22EF12E7008F4027108031C710F61
:100DCE00F5027208031C720FF6027308031C730FF0
:100DDE00F702541401300310F30CF20CF10CF00C6A
:100DEE00FF3E031DF22E0130D202031DFF2E002FF7
:100DFE00C72E53080319042F052F102FD409D50918
:100E0E00D609D709D40A0319D50A0319D60A031924
:100E1E00D70A5708F3005608F2005508F100540897
:100E2E00F000080083120313DD005330D800DE2FCC
:100E3E0025305E060319242F252F2F2F5D088400E1
:100E4E005E08831380000130FF007F08DD07DE2F70
:100E5E00D9010130D207FF30520784000A128A11DD
:100E6E0003200A128A11DE00D500D6015608003A78
:100E7E000319422FDE2F5508003A0319EE2F643A5C
:100E8E0003194D2F0D3A03194D2FDE2F58088400EC
:100E9E0083130008DB00840A0008DC000230FF0028
:100EAE007F08D807DC1F5C2F5D2F662F0330FF00F5
:100EBE007F08D904DB09DC09DB0A0319DC0ADE0131
:100ECE00DE0A5E08D5005507013E84000A128A111B
:100EDE0003200A128A11D6000A128A1103200A125E
:100EEE008A11D70057085C02031D7F2F56085B023C
:100EFE000318822F832F842F8E2F0130FF007F083F
:100F0E00DE0705305E06031D8D2F8E2F682F5908C4
:100F1E0003390319932F942F9D2F5D0884002D30D4
:100F2E00831380000130FF007F08DD075E08DA00C2
:100F3E00D52F0A30F7000030F8005A08D5005507B3
:100F4E00013E84000A128A1103200A128A11F0004F
:100F5E000A128A1103200A128A11F1005C08F300AA
:100F6E005B08F2000A128A11EF250A128A11710823
:100F7E00FA007008F9000A128A11B5250A128A11B0
:100F8E007708303E83120313DE005D0884005E088E
:100F9E00831380000130FF007F08DD07FF30FF0064
:100FAE007F08DA075A0A031DDD2FDE2FA02F01302E
:100FBE00D207FF30520784000A128A1103200A1248
:100FCE008A11DE005E08031DED2FEE2F1F2F5D0828
:100FDE008400831380010800831320308400523074
:100FEE000A128A11FF240A128A1183010A128A1127
:020FFE00332E90
:08400000FF3FFF3FFF3FFF3FC0
:02400E007A3FF7
:00000001FF
